{
  "_format": "hh-sol-artifact-1",
  "contractName": "Leverager",
  "sourceName": "contracts/Leverager.sol",
  "abi": [
    {
      "inputs": [
        {
          "internalType": "address",
          "name": "weth9",
          "type": "address"
        },
        {
          "internalType": "address",
          "name": "router",
          "type": "address"
        },
        {
          "internalType": "address",
          "name": "link",
          "type": "address"
        },
        {
          "internalType": "address",
          "name": "_vault",
          "type": "address"
        }
      ],
      "stateMutability": "nonpayable",
      "type": "constructor"
    },
    {
      "inputs": [],
      "name": "InvalidFlashloanCallbackSender",
      "type": "error"
    },
    {
      "inputs": [
        {
          "internalType": "address",
          "name": "initiator",
          "type": "address"
        }
      ],
      "name": "InvalidInitiator",
      "type": "error"
    },
    {
      "inputs": [
        {
          "internalType": "address",
          "name": "router",
          "type": "address"
        }
      ],
      "name": "InvalidRouter",
      "type": "error"
    },
    {
      "inputs": [],
      "name": "LengthMismatch",
      "type": "error"
    },
    {
      "inputs": [
        {
          "internalType": "uint256",
          "name": "msgValue",
          "type": "uint256"
        },
        {
          "internalType": "uint256",
          "name": "amount",
          "type": "uint256"
        }
      ],
      "name": "MsgValueAmountDiff",
      "type": "error"
    },
    {
      "inputs": [
        {
          "internalType": "address",
          "name": "owner",
          "type": "address"
        }
      ],
      "name": "OwnableInvalidOwner",
      "type": "error"
    },
    {
      "inputs": [
        {
          "internalType": "address",
          "name": "account",
          "type": "address"
        }
      ],
      "name": "OwnableUnauthorizedAccount",
      "type": "error"
    },
    {
      "inputs": [],
      "name": "ReentrancyLock",
      "type": "error"
    },
    {
      "inputs": [
        {
          "internalType": "address",
          "name": "sender",
          "type": "address"
        }
      ],
      "name": "SenderNotAllowlisted",
      "type": "error"
    },
    {
      "anonymous": false,
      "inputs": [
        {
          "indexed": true,
          "internalType": "address",
          "name": "user",
          "type": "address"
        },
        {
          "indexed": false,
          "internalType": "uint256",
          "name": "srcChainId",
          "type": "uint256"
        },
        {
          "indexed": false,
          "internalType": "uint256",
          "name": "dstChainId",
          "type": "uint256"
        },
        {
          "indexed": false,
          "internalType": "uint256",
          "name": "amount",
          "type": "uint256"
        },
        {
          "indexed": false,
          "internalType": "uint256",
          "name": "ltv",
          "type": "uint256"
        }
      ],
      "name": "Close",
      "type": "event"
    },
    {
      "anonymous": false,
      "inputs": [
        {
          "indexed": true,
          "internalType": "address",
          "name": "user",
          "type": "address"
        },
        {
          "indexed": true,
          "internalType": "address",
          "name": "token",
          "type": "address"
        },
        {
          "indexed": false,
          "internalType": "uint256",
          "name": "amount",
          "type": "uint256"
        },
        {
          "indexed": false,
          "internalType": "uint256",
          "name": "ltv",
          "type": "uint256"
        }
      ],
      "name": "Deleverage",
      "type": "event"
    },
    {
      "anonymous": false,
      "inputs": [
        {
          "indexed": true,
          "internalType": "address",
          "name": "user",
          "type": "address"
        },
        {
          "indexed": true,
          "internalType": "address",
          "name": "token",
          "type": "address"
        },
        {
          "indexed": false,
          "internalType": "uint256",
          "name": "amount",
          "type": "uint256"
        },
        {
          "indexed": false,
          "internalType": "uint256",
          "name": "ltv",
          "type": "uint256"
        }
      ],
      "name": "Leverage",
      "type": "event"
    },
    {
      "anonymous": false,
      "inputs": [
        {
          "indexed": true,
          "internalType": "bytes32",
          "name": "messageId",
          "type": "bytes32"
        },
        {
          "indexed": true,
          "internalType": "uint64",
          "name": "sourceChainSelector",
          "type": "uint64"
        },
        {
          "indexed": false,
          "internalType": "address",
          "name": "sender",
          "type": "address"
        },
        {
          "indexed": false,
          "internalType": "string",
          "name": "text",
          "type": "string"
        }
      ],
      "name": "MessageReceived",
      "type": "event"
    },
    {
      "anonymous": false,
      "inputs": [
        {
          "indexed": true,
          "internalType": "address",
          "name": "previousOwner",
          "type": "address"
        },
        {
          "indexed": true,
          "internalType": "address",
          "name": "newOwner",
          "type": "address"
        }
      ],
      "name": "OwnershipTransferred",
      "type": "event"
    },
    {
      "anonymous": false,
      "inputs": [
        {
          "indexed": true,
          "internalType": "address",
          "name": "user",
          "type": "address"
        },
        {
          "indexed": true,
          "internalType": "address",
          "name": "token",
          "type": "address"
        },
        {
          "indexed": false,
          "internalType": "uint256",
          "name": "amount",
          "type": "uint256"
        }
      ],
      "name": "Supply",
      "type": "event"
    },
    {
      "anonymous": false,
      "inputs": [
        {
          "indexed": true,
          "internalType": "address",
          "name": "user",
          "type": "address"
        },
        {
          "indexed": true,
          "internalType": "address",
          "name": "token",
          "type": "address"
        },
        {
          "indexed": false,
          "internalType": "uint256",
          "name": "amount",
          "type": "uint256"
        }
      ],
      "name": "Withdraw",
      "type": "event"
    },
    {
      "inputs": [],
      "name": "WETH9",
      "outputs": [
        {
          "internalType": "address",
          "name": "",
          "type": "address"
        }
      ],
      "stateMutability": "view",
      "type": "function"
    },
    {
      "inputs": [
        {
          "internalType": "uint64",
          "name": "destChainSelector",
          "type": "uint64"
        },
        {
          "internalType": "address",
          "name": "leverager",
          "type": "address"
        }
      ],
      "name": "addDstChain",
      "outputs": [],
      "stateMutability": "nonpayable",
      "type": "function"
    },
    {
      "inputs": [
        {
          "components": [
            {
              "internalType": "address",
              "name": "asset",
              "type": "address"
            },
            {
              "internalType": "address",
              "name": "counterAsset",
              "type": "address"
            },
            {
              "internalType": "uint256",
              "name": "amount",
              "type": "uint256"
            },
            {
              "internalType": "uint8",
              "name": "flags",
              "type": "uint8"
            },
            {
              "internalType": "bytes",
              "name": "data",
              "type": "bytes"
            }
          ],
          "internalType": "struct ILeverager.InputParams",
          "name": "inputParams",
          "type": "tuple"
        }
      ],
      "name": "borrow",
      "outputs": [
        {
          "internalType": "uint256",
          "name": "returnAmount",
          "type": "uint256"
        }
      ],
      "stateMutability": "nonpayable",
      "type": "function"
    },
    {
      "inputs": [
        {
          "components": [
            {
              "internalType": "bytes32",
              "name": "messageId",
              "type": "bytes32"
            },
            {
              "internalType": "uint64",
              "name": "sourceChainSelector",
              "type": "uint64"
            },
            {
              "internalType": "bytes",
              "name": "sender",
              "type": "bytes"
            },
            {
              "internalType": "bytes",
              "name": "data",
              "type": "bytes"
            },
            {
              "components": [
                {
                  "internalType": "address",
                  "name": "token",
                  "type": "address"
                },
                {
                  "internalType": "uint256",
                  "name": "amount",
                  "type": "uint256"
                }
              ],
              "internalType": "struct Client.EVMTokenAmount[]",
              "name": "destTokenAmounts",
              "type": "tuple[]"
            }
          ],
          "internalType": "struct Client.Any2EVMMessage",
          "name": "message",
          "type": "tuple"
        }
      ],
      "name": "ccipReceive",
      "outputs": [],
      "stateMutability": "nonpayable",
      "type": "function"
    },
    {
      "inputs": [
        {
          "components": [
            {
              "internalType": "address",
              "name": "asset",
              "type": "address"
            },
            {
              "internalType": "address",
              "name": "counterAsset",
              "type": "address"
            },
            {
              "internalType": "uint256",
              "name": "amount",
              "type": "uint256"
            },
            {
              "internalType": "uint8",
              "name": "flags",
              "type": "uint8"
            },
            {
              "internalType": "bytes",
              "name": "data",
              "type": "bytes"
            }
          ],
          "internalType": "struct ILeverager.InputParams",
          "name": "inputParams",
          "type": "tuple"
        }
      ],
      "name": "close",
      "outputs": [
        {
          "internalType": "uint256",
          "name": "",
          "type": "uint256"
        }
      ],
      "stateMutability": "payable",
      "type": "function"
    },
    {
      "inputs": [
        {
          "internalType": "uint64",
          "name": "",
          "type": "uint64"
        }
      ],
      "name": "dstToLeverager",
      "outputs": [
        {
          "internalType": "address",
          "name": "",
          "type": "address"
        }
      ],
      "stateMutability": "view",
      "type": "function"
    },
    {
      "inputs": [
        {
          "internalType": "address[]",
          "name": "assets",
          "type": "address[]"
        },
        {
          "internalType": "uint256[]",
          "name": "amounts",
          "type": "uint256[]"
        },
        {
          "internalType": "uint256[]",
          "name": "premiums",
          "type": "uint256[]"
        },
        {
          "internalType": "address",
          "name": "initiator",
          "type": "address"
        },
        {
          "internalType": "bytes",
          "name": "params",
          "type": "bytes"
        }
      ],
      "name": "executeOperation",
      "outputs": [
        {
          "internalType": "bool",
          "name": "",
          "type": "bool"
        }
      ],
      "stateMutability": "nonpayable",
      "type": "function"
    },
    {
      "inputs": [],
      "name": "getRouter",
      "outputs": [
        {
          "internalType": "address",
          "name": "",
          "type": "address"
        }
      ],
      "stateMutability": "view",
      "type": "function"
    },
    {
      "inputs": [],
      "name": "i_link",
      "outputs": [
        {
          "internalType": "address",
          "name": "",
          "type": "address"
        }
      ],
      "stateMutability": "view",
      "type": "function"
    },
    {
      "inputs": [],
      "name": "owner",
      "outputs": [
        {
          "internalType": "address",
          "name": "",
          "type": "address"
        }
      ],
      "stateMutability": "view",
      "type": "function"
    },
    {
      "inputs": [],
      "name": "propagator",
      "outputs": [
        {
          "internalType": "contract Propagator",
          "name": "",
          "type": "address"
        }
      ],
      "stateMutability": "view",
      "type": "function"
    },
    {
      "inputs": [],
      "name": "renounceOwnership",
      "outputs": [],
      "stateMutability": "nonpayable",
      "type": "function"
    },
    {
      "inputs": [
        {
          "components": [
            {
              "internalType": "address",
              "name": "asset",
              "type": "address"
            },
            {
              "internalType": "address",
              "name": "counterAsset",
              "type": "address"
            },
            {
              "internalType": "uint256",
              "name": "amount",
              "type": "uint256"
            },
            {
              "internalType": "uint8",
              "name": "flags",
              "type": "uint8"
            },
            {
              "internalType": "bytes",
              "name": "data",
              "type": "bytes"
            }
          ],
          "internalType": "struct ILeverager.InputParams",
          "name": "inputParams",
          "type": "tuple"
        }
      ],
      "name": "supply",
      "outputs": [
        {
          "internalType": "uint256",
          "name": "returnAmount",
          "type": "uint256"
        }
      ],
      "stateMutability": "payable",
      "type": "function"
    },
    {
      "inputs": [
        {
          "internalType": "bytes4",
          "name": "interfaceId",
          "type": "bytes4"
        }
      ],
      "name": "supportsInterface",
      "outputs": [
        {
          "internalType": "bool",
          "name": "",
          "type": "bool"
        }
      ],
      "stateMutability": "pure",
      "type": "function"
    },
    {
      "inputs": [
        {
          "internalType": "address",
          "name": "newOwner",
          "type": "address"
        }
      ],
      "name": "transferOwnership",
      "outputs": [],
      "stateMutability": "nonpayable",
      "type": "function"
    },
    {
      "inputs": [],
      "name": "vault",
      "outputs": [
        {
          "internalType": "address",
          "name": "",
          "type": "address"
        }
      ],
      "stateMutability": "view",
      "type": "function"
    },
    {
      "inputs": [
        {
          "components": [
            {
              "internalType": "address",
              "name": "asset",
              "type": "address"
            },
            {
              "internalType": "address",
              "name": "counterAsset",
              "type": "address"
            },
            {
              "internalType": "uint256",
              "name": "amount",
              "type": "uint256"
            },
            {
              "internalType": "uint8",
              "name": "flags",
              "type": "uint8"
            },
            {
              "internalType": "bytes",
              "name": "data",
              "type": "bytes"
            }
          ],
          "internalType": "struct ILeverager.InputParams",
          "name": "inputParams",
          "type": "tuple"
        }
      ],
      "name": "withdraw",
      "outputs": [
        {
          "internalType": "uint256",
          "name": "returnAmount",
          "type": "uint256"
        }
      ],
      "stateMutability": "nonpayable",
      "type": "function"
    },
    {
      "stateMutability": "payable",
      "type": "receive"
    }
  ],
  "bytecode": "0x6101206040523480156200001257600080fd5b5060405162007eb838038062007eb88339818101604052810190620000389190620003be565b8233600073ffffffffffffffffffffffffffffffffffffffff168173ffffffffffffffffffffffffffffffffffffffff1603620000af5760006040517f1e4fbdf7000000000000000000000000000000000000000000000000000000008152600401620000a6919062000441565b60405180910390fd5b620000c0816200028260201b60201c565b50600073ffffffffffffffffffffffffffffffffffffffff168173ffffffffffffffffffffffffffffffffffffffff1603620001365760006040517fd7f733340000000000000000000000000000000000000000000000000000000081526004016200012d919062000441565b60405180910390fd5b8073ffffffffffffffffffffffffffffffffffffffff1660808173ffffffffffffffffffffffffffffffffffffffff1681525050508373ffffffffffffffffffffffffffffffffffffffff1660c08173ffffffffffffffffffffffffffffffffffffffff16815250508073ffffffffffffffffffffffffffffffffffffffff1660a08173ffffffffffffffffffffffffffffffffffffffff16815250508173ffffffffffffffffffffffffffffffffffffffff1660e08173ffffffffffffffffffffffffffffffffffffffff1681525050828233604051620002189062000346565b62000226939291906200045e565b604051809103906000f08015801562000243573d6000803e3d6000fd5b5073ffffffffffffffffffffffffffffffffffffffff166101008173ffffffffffffffffffffffffffffffffffffffff1681525050505050506200049b565b60008060009054906101000a900473ffffffffffffffffffffffffffffffffffffffff169050816000806101000a81548173ffffffffffffffffffffffffffffffffffffffff021916908373ffffffffffffffffffffffffffffffffffffffff1602179055508173ffffffffffffffffffffffffffffffffffffffff168173ffffffffffffffffffffffffffffffffffffffff167f8be0079c531659141344cd1fd0a4f28419497f9722a3daafe3b4186f6b6457e060405160405180910390a35050565b611f148062005fa483390190565b600080fd5b600073ffffffffffffffffffffffffffffffffffffffff82169050919050565b6000620003868262000359565b9050919050565b620003988162000379565b8114620003a457600080fd5b50565b600081519050620003b8816200038d565b92915050565b60008060008060808587031215620003db57620003da62000354565b5b6000620003eb87828801620003a7565b9450506020620003fe87828801620003a7565b93505060406200041187828801620003a7565b92505060606200042487828801620003a7565b91505092959194509250565b6200043b8162000379565b82525050565b600060208201905062000458600083018462000430565b92915050565b600060608201905062000475600083018662000430565b62000484602083018562000430565b62000493604083018462000430565b949350505050565b60805160a05160c05160e05161010051615a2a6200057a60003960008181610fc801528181612dd70152612f7a01526000610fec01526000818161099b01528181610c75015281816118480152818161193601528181611a9701528181611c5a01528181611c7d01528181611d220152818161209601528181612122015281816122bb015281816123bd0152818161291e015281816131630152818161323f015281816133d801526134d3015260008181610a3a015281816110f70152818161161901526129bd015260008181611010015261156d0152615a2a6000f3fe6080604052600436106101025760003560e01c806379b2933311610095578063920f5c8411610064578063920f5c841461033a57806395d992c314610377578063b0f479a1146103b4578063f2fde38b146103df578063fbfa77cf1461040857610109565b806379b29333146102905780637d253aff146102bb57806385572ffb146102e65780638da5cb5b1461030f57610109565b8063528e4e5f116100d1578063528e4e5f146101cf5780635beeab331461020c5780637121ac611461023c578063715018a61461027957610109565b806301ffc9a71461010e57806305128de01461014b5780632e99f1e4146101745780634aa4a4fc146101a457610109565b3661010957005b600080fd5b34801561011a57600080fd5b5061013560048036038101906101309190613c2a565b610433565b6040516101429190613c72565b60405180910390f35b34801561015757600080fd5b50610172600480360381019061016d9190613d2b565b610505565b005b61018e60048036038101906101899190613fd2565b610577565b60405161019b919061402a565b60405180910390f35b3480156101b057600080fd5b506101b9610c73565b6040516101c69190614054565b60405180910390f35b3480156101db57600080fd5b506101f660048036038101906101f19190613fd2565b610c97565b604051610203919061402a565b60405180910390f35b61022660048036038101906102219190613fd2565b610d13565b604051610233919061402a565b60405180910390f35b34801561024857600080fd5b50610263600480360381019061025e919061406f565b610f7f565b6040516102709190614054565b60405180910390f35b34801561028557600080fd5b5061028e610fb2565b005b34801561029c57600080fd5b506102a5610fc6565b6040516102b291906140fb565b60405180910390f35b3480156102c757600080fd5b506102d0610fea565b6040516102dd9190614054565b60405180910390f35b3480156102f257600080fd5b5061030d6004803603810190610308919061413a565b61100e565b005b34801561031b57600080fd5b506103246110b3565b6040516103319190614054565b60405180910390f35b34801561034657600080fd5b50610361600480360381019061035c919061428f565b6110dc565b60405161036e9190613c72565b60405180910390f35b34801561038357600080fd5b5061039e60048036038101906103999190613fd2565b611444565b6040516103ab919061402a565b60405180910390f35b3480156103c057600080fd5b506103c9611569565b6040516103d69190614054565b60405180910390f35b3480156103eb57600080fd5b506104066004803603810190610401919061438b565b611591565b005b34801561041457600080fd5b5061041d611617565b60405161042a9190614054565b60405180910390f35b60007f85572ffb000000000000000000000000000000000000000000000000000000007bffffffffffffffffffffffffffffffffffffffffffffffffffffffff1916827bffffffffffffffffffffffffffffffffffffffffffffffffffffffff191614806104fe57507f01ffc9a7000000000000000000000000000000000000000000000000000000007bffffffffffffffffffffffffffffffffffffffffffffffffffffffff1916827bffffffffffffffffffffffffffffffffffffffffffffffffffffffff1916145b9050919050565b61050d61163b565b80600160008467ffffffffffffffff1667ffffffffffffffff16815260200190815260200160002060006101000a81548173ffffffffffffffffffffffffffffffffffffffff021916908373ffffffffffffffffffffffffffffffffffffffff1602179055505050565b6000806105826116c2565b905060008160000154146105c2576040517f19239fc500000000000000000000000000000000000000000000000000000000815260040160405180910390fd5b600181600001819055506105ef836000015173ffffffffffffffffffffffffffffffffffffffff166116f2565b80156105ff575034836040015114155b15610647573483604001516040517fba38a90500000000000000000000000000000000000000000000000000000000815260040161063e9291906143b8565b60405180910390fd5b61067c33308560400151866000015173ffffffffffffffffffffffffffffffffffffffff166117ad909392919063ffffffff16565b6106a933846020015173ffffffffffffffffffffffffffffffffffffffff1661180c90919063ffffffff16565b915060008360800151510361074b576000600184606001511660ff160361070a576107056106f0846000015173ffffffffffffffffffffffffffffffffffffffff166116f2565b84600001518560200151866040015133611841565b610746565b610745610730846000015173ffffffffffffffffffffffffffffffffffffffff166116f2565b84600001518560200151866040015133611a8f565b5b610c29565b610753613a70565b836080015180602001905181019061076b91906144ce565b846080018560a0018660c0018761010001849052848152508473ffffffffffffffffffffffffffffffffffffffff1673ffffffffffffffffffffffffffffffffffffffff168152508473ffffffffffffffffffffffffffffffffffffffff1673ffffffffffffffffffffffffffffffffffffffff1681525050505050600167ffffffffffffffff81111561080257610801613d81565b5b6040519080825280602002602001820160405280156108305781602001602082028036833780820191505090505b50816101200181905250600167ffffffffffffffff81111561085557610854613d81565b5b6040519080825280602002602001820160405280156108835781602001602082028036833780820191505090505b50816101400181905250600167ffffffffffffffff8111156108a8576108a7613d81565b5b6040519080825280602002602001820160405280156108d65781602001602082028036833780820191505090505b508161016001819052506000600485606001511660ff16146108fc578360000151610902565b80608001515b81610120015160008151811061091b5761091a614551565b5b602002602001019073ffffffffffffffffffffffffffffffffffffffff16908173ffffffffffffffffffffffffffffffffffffffff168152505061099481610120015160008151811061097157610970614551565b5b602002602001015173ffffffffffffffffffffffffffffffffffffffff166116f2565b15610a0e577f00000000000000000000000000000000000000000000000000000000000000008161012001516000815181106109d3576109d2614551565b5b602002602001019073ffffffffffffffffffffffffffffffffffffffff16908173ffffffffffffffffffffffffffffffffffffffff16815250505b8060c00151816101400151600081518110610a2c57610a2b614551565b5b6020026020010181815250507f000000000000000000000000000000000000000000000000000000000000000073ffffffffffffffffffffffffffffffffffffffff1663ab9c4b5d30836101200151846101400151856101600151306040518061014001604052803373ffffffffffffffffffffffffffffffffffffffff1681526020018c6000015173ffffffffffffffffffffffffffffffffffffffff1681526020018c6020015173ffffffffffffffffffffffffffffffffffffffff168152602001896080015173ffffffffffffffffffffffffffffffffffffffff1681526020018960a0015173ffffffffffffffffffffffffffffffffffffffff168152602001896101200151600081518110610b4957610b48614551565b5b602002602001015173ffffffffffffffffffffffffffffffffffffffff1681526020018c6040015181526020018960c0015181526020018c6060015160ff168152602001896101000151815250604051602001610ba691906146dc565b60405160208183030381529060405260006040518863ffffffff1660e01b8152600401610bd997969594939291906148ef565b600060405180830381600087803b158015610bf357600080fd5b505af1158015610c07573d6000803e3d6000fd5b50505050610c188460000151611c32565b50610c268160800151611c32565b50505b81610c5733856020015173ffffffffffffffffffffffffffffffffffffffff1661180c90919063ffffffff16565b610c6191906149a9565b91506000816000018190555050919050565b7f000000000000000000000000000000000000000000000000000000000000000081565b600080610cbd836000015173ffffffffffffffffffffffffffffffffffffffff166116f2565b90506000600184606001511660ff1603610cf157610cea8184600001518560200151866040015133611e80565b9150610d0d565b610d0a8184600001518560200151866040015133611fad565b91505b50919050565b600080610d1e6116c2565b90506000816000015414610d5e576040517f19239fc500000000000000000000000000000000000000000000000000000000815260040160405180910390fd5b600181600001819055506000610d8d846000015173ffffffffffffffffffffffffffffffffffffffff166116f2565b9050808015610da0575034846040015114155b15610de8573484604001516040517fba38a905000000000000000000000000000000000000000000000000000000008152600401610ddf9291906143b8565b60405180910390fd5b610e1d33308660400151876000015173ffffffffffffffffffffffffffffffffffffffff166117ad909392919063ffffffff16565b600084608001515103610e79576000600185606001511660ff1603610e5a57610e558185600001518660200151876040015133612218565b610e74565b610e738185600001518660200151876040015133612553565b5b610f6e565b610e81613a70565b846040015181600001818152505033816060019073ffffffffffffffffffffffffffffffffffffffff16908173ffffffffffffffffffffffffffffffffffffffff16815250508460000151816020019073ffffffffffffffffffffffffffffffffffffffff16908173ffffffffffffffffffffffffffffffffffffffff16815250508460200151816040019073ffffffffffffffffffffffffffffffffffffffff16908173ffffffffffffffffffffffffffffffffffffffff168152505084606001518160e0019060ff16908160ff16815250508460800151816101800181905250610f6c816126da565b505b506000816000018190555050919050565b60016020528060005260406000206000915054906101000a900473ffffffffffffffffffffffffffffffffffffffff1681565b610fba61163b565b610fc46000612e81565b565b7f000000000000000000000000000000000000000000000000000000000000000081565b7f000000000000000000000000000000000000000000000000000000000000000081565b7f000000000000000000000000000000000000000000000000000000000000000073ffffffffffffffffffffffffffffffffffffffff163373ffffffffffffffffffffffffffffffffffffffff161461109e57336040517fd7f733340000000000000000000000000000000000000000000000000000000081526004016110959190614054565b60405180910390fd5b6110b0816110ab90614c06565b612f45565b50565b60008060009054906101000a900473ffffffffffffffffffffffffffffffffffffffff16905090565b60003373ffffffffffffffffffffffffffffffffffffffff167f000000000000000000000000000000000000000000000000000000000000000073ffffffffffffffffffffffffffffffffffffffff1614611163576040517fe973de0b00000000000000000000000000000000000000000000000000000000815260040160405180910390fd5b3073ffffffffffffffffffffffffffffffffffffffff168473ffffffffffffffffffffffffffffffffffffffff16146111d357336040517f2a868ed00000000000000000000000000000000000000000000000000000000081526004016111ca9190614054565b60405180910390fd5b60008383905011156112b757600083838101906111f09190614d2b565b9050600060018261010001511660ff160361125f5761125a818888600081811061121d5761121c614551565b5b9050602002013560026112309190614d74565b8b8b600081811061124457611243614551565b5b905060200201356112559190614db6565b6130fa565b6112b5565b6112b4818888600081811061127757611276614551565b5b90506020020135600261128a9190614d74565b8b8b600081811061129e5761129d614551565b5b905060200201356112af9190614db6565b613355565b5b505b60005b8a8a9050811015611432576113376112d06110b3565b8888848181106112e3576112e2614551565b5b905060200201358d8d858181106112fd576112fc614551565b5b9050602002016020810190611312919061438b565b73ffffffffffffffffffffffffffffffffffffffff166135ee9092919063ffffffff16565b600087878381811061134c5761134b614551565b5b905060200201358a8a8481811061136657611365614551565b5b905060200201356113779190614db6565b90506113cc3360008e8e8681811061139257611391614551565b5b90506020020160208101906113a7919061438b565b73ffffffffffffffffffffffffffffffffffffffff1661363d9092919063ffffffff16565b61141e33828e8e868181106113e4576113e3614551565b5b90506020020160208101906113f9919061438b565b73ffffffffffffffffffffffffffffffffffffffff1661363d9092919063ffffffff16565b50808061142a90614dea565b9150506112ba565b50600190509998505050505050505050565b60008061144f6116c2565b9050600081600001541461148f576040517f19239fc500000000000000000000000000000000000000000000000000000000815260040160405180910390fd5b6001816000018190555060006114be846000015173ffffffffffffffffffffffffffffffffffffffff166116f2565b90506000600185606001511660ff160361152a5761150733308660400151876020015173ffffffffffffffffffffffffffffffffffffffff166117ad909392919063ffffffff16565b6115258185600001518660200151876040015133896080015161368c565b611549565b61154881856000015186602001518760400151338960800151613711565b5b6115568460000151611c32565b9250506000816000018190555050919050565b60007f0000000000000000000000000000000000000000000000000000000000000000905090565b61159961163b565b600073ffffffffffffffffffffffffffffffffffffffff168173ffffffffffffffffffffffffffffffffffffffff160361160b5760006040517f1e4fbdf70000000000000000000000000000000000000000000000000000000081526004016116029190614054565b60405180910390fd5b61161481612e81565b50565b7f000000000000000000000000000000000000000000000000000000000000000081565b611643613950565b73ffffffffffffffffffffffffffffffffffffffff166116616110b3565b73ffffffffffffffffffffffffffffffffffffffff16146116c057611684613950565b6040517f118cdaa70000000000000000000000000000000000000000000000000000000081526004016116b79190614054565b60405180910390fd5b565b6000807f579d790592639b2d681736f3c42db3029bc25bdee19fb1af9a117b346237558560001b90508091505090565b600073eeeeeeeeeeeeeeeeeeeeeeeeeeeeeeeeeeeeeeee73ffffffffffffffffffffffffffffffffffffffff168273ffffffffffffffffffffffffffffffffffffffff16148061176f575061101073ffffffffffffffffffffffffffffffffffffffff168273ffffffffffffffffffffffffffffffffffffffff16145b806117a65750600073ffffffffffffffffffffffffffffffffffffffff168273ffffffffffffffffffffffffffffffffffffffff16145b9050919050565b60405181606052826040528360601b602c526f23b872dd000000000000000000000000600c52602060006064601c6000895af13d1560016000511417166117fc57637939f4246000526004601cfd5b6000606052806040525050505050565b6000816014526f70a0823100000000000000000000000060005260208060246010865afa601f3d111660205102905092915050565b84611a26577f000000000000000000000000000000000000000000000000000000000000000073ffffffffffffffffffffffffffffffffffffffff168473ffffffffffffffffffffffffffffffffffffffff1614611934576118c483838673ffffffffffffffffffffffffffffffffffffffff1661363d9092919063ffffffff16565b8273ffffffffffffffffffffffffffffffffffffffff1663a0712d68836040518263ffffffff1660e01b81526004016118fd919061402a565b600060405180830381600087803b15801561191757600080fd5b505af115801561192b573d6000803e3d6000fd5b50505050611a21565b7f000000000000000000000000000000000000000000000000000000000000000073ffffffffffffffffffffffffffffffffffffffff16632e1a7d4d836040518263ffffffff1660e01b815260040161198d919061402a565b600060405180830381600087803b1580156119a757600080fd5b505af11580156119bb573d6000803e3d6000fd5b505050508273ffffffffffffffffffffffffffffffffffffffff16631249c58b836040518263ffffffff1660e01b81526004016000604051808303818588803b158015611a0757600080fd5b505af1158015611a1b573d6000803e3d6000fd5b50505050505b611a88565b8273ffffffffffffffffffffffffffffffffffffffff16631249c58b836040518263ffffffff1660e01b81526004016000604051808303818588803b158015611a6e57600080fd5b505af1158015611a82573d6000803e3d6000fd5b50505050505b5050505050565b8415611b1a577f000000000000000000000000000000000000000000000000000000000000000093508373ffffffffffffffffffffffffffffffffffffffff1663d0e30db0836040518263ffffffff1660e01b81526004016000604051808303818588803b158015611b0057600080fd5b505af1158015611b14573d6000803e3d6000fd5b50505050505b60008373ffffffffffffffffffffffffffffffffffffffff16637535d2466040518163ffffffff1660e01b8152600401602060405180830381865afa158015611b67573d6000803e3d6000fd5b505050506040513d601f19601f82011682018060405250810190611b8b9190614e47565b9050611bb881848773ffffffffffffffffffffffffffffffffffffffff1661363d9092919063ffffffff16565b8073ffffffffffffffffffffffffffffffffffffffff1663e8eda9df86858560006040518563ffffffff1660e01b8152600401611bf89493929190614e74565b600060405180830381600087803b158015611c1257600080fd5b505af1158015611c26573d6000803e3d6000fd5b50505050505050505050565b6000611c538273ffffffffffffffffffffffffffffffffffffffff166116f2565b15611e1a577f000000000000000000000000000000000000000000000000000000000000000091507f000000000000000000000000000000000000000000000000000000000000000073ffffffffffffffffffffffffffffffffffffffff166370a08231306040518263ffffffff1660e01b8152600401611cd49190614054565b602060405180830381865afa158015611cf1573d6000803e3d6000fd5b505050506040513d601f19601f82011682018060405250810190611d159190614eb9565b90506000811115611e15577f000000000000000000000000000000000000000000000000000000000000000073ffffffffffffffffffffffffffffffffffffffff16632e1a7d4d826040518263ffffffff1660e01b8152600401611d79919061402a565b600060405180830381600087803b158015611d9357600080fd5b505af1158015611da7573d6000803e3d6000fd5b505050503373ffffffffffffffffffffffffffffffffffffffff1681604051611dcf90614f17565b60006040518083038185875af1925050503d8060008114611e0c576040519150601f19603f3d011682016040523d82523d6000602084013e611e11565b606091505b5050505b611e7b565b611e43308373ffffffffffffffffffffffffffffffffffffffff1661180c90919063ffffffff16565b90506000811115611e7a57611e7933828473ffffffffffffffffffffffffffffffffffffffff166135ee9092919063ffffffff16565b5b5b919050565b6000611eaf8230858773ffffffffffffffffffffffffffffffffffffffff166117ad909392919063ffffffff16565b8373ffffffffffffffffffffffffffffffffffffffff1663db006a75846040518263ffffffff1660e01b8152600401611ee8919061402a565b600060405180830381600087803b158015611f0257600080fd5b505af1158015611f16573d6000803e3d6000fd5b50505050611f43308673ffffffffffffffffffffffffffffffffffffffff1661395890919063ffffffff16565b90503073ffffffffffffffffffffffffffffffffffffffff168273ffffffffffffffffffffffffffffffffffffffff1614611fa457611fa382828773ffffffffffffffffffffffffffffffffffffffff166139b99092919063ffffffff16565b5b95945050505050565b6000611fdc8230858773ffffffffffffffffffffffffffffffffffffffff166117ad909392919063ffffffff16565b60008473ffffffffffffffffffffffffffffffffffffffff16637535d2466040518163ffffffff1660e01b8152600401602060405180830381865afa158015612029573d6000803e3d6000fd5b505050506040513d601f19601f8201168201806040525081019061204d9190614e47565b90508073ffffffffffffffffffffffffffffffffffffffff166369328dec61208a8873ffffffffffffffffffffffffffffffffffffffff166116f2565b61209457876120b6565b7f00000000000000000000000000000000000000000000000000000000000000005b86306040518463ffffffff1660e01b81526004016120d693929190614f2c565b6020604051808303816000875af11580156120f5573d6000803e3d6000fd5b505050506040513d601f19601f820116820180604052508101906121199190614eb9565b5086156121ac577f000000000000000000000000000000000000000000000000000000000000000073ffffffffffffffffffffffffffffffffffffffff16632e1a7d4d856040518263ffffffff1660e01b8152600401612179919061402a565b600060405180830381600087803b15801561219357600080fd5b505af11580156121a7573d6000803e3d6000fd5b505050505b3073ffffffffffffffffffffffffffffffffffffffff168373ffffffffffffffffffffffffffffffffffffffff161461220b5761220a83858873ffffffffffffffffffffffffffffffffffffffff166139b99092919063ffffffff16565b5b8391505095945050505050565b60008373ffffffffffffffffffffffffffffffffffffffff166317bfdfbc836040518263ffffffff1660e01b81526004016122539190614054565b6020604051808303816000875af1158015612272573d6000803e3d6000fd5b505050506040513d601f19601f820116820180604052508101906122969190614eb9565b905060008184116122a757836122a9565b815b9050600081111561254a57866124ca577f000000000000000000000000000000000000000000000000000000000000000073ffffffffffffffffffffffffffffffffffffffff168673ffffffffffffffffffffffffffffffffffffffff16146123bb5761233785828873ffffffffffffffffffffffffffffffffffffffff1661363d9092919063ffffffff16565b8473ffffffffffffffffffffffffffffffffffffffff16632608f81884836040518363ffffffff1660e01b8152600401612372929190614f63565b6020604051808303816000875af1158015612391573d6000803e3d6000fd5b505050506040513d601f19601f820116820180604052508101906123b59190614eb9565b506124c5565b7f000000000000000000000000000000000000000000000000000000000000000073ffffffffffffffffffffffffffffffffffffffff16632e1a7d4d856040518263ffffffff1660e01b8152600401612414919061402a565b600060405180830381600087803b15801561242e57600080fd5b505af1158015612442573d6000803e3d6000fd5b505050508473ffffffffffffffffffffffffffffffffffffffff1663e597461982856040518363ffffffff1660e01b81526004016124809190614054565b60206040518083038185885af115801561249e573d6000803e3d6000fd5b50505050506040513d601f19601f820116820180604052508101906124c39190614eb9565b505b612549565b8473ffffffffffffffffffffffffffffffffffffffff1663e597461982856040518363ffffffff1660e01b81526004016125049190614054565b60206040518083038185885af1158015612522573d6000803e3d6000fd5b50505050506040513d601f19601f820116820180604052508101906125479190614eb9565b505b5b50505050505050565b60008373ffffffffffffffffffffffffffffffffffffffff16637535d2466040518163ffffffff1660e01b8152600401602060405180830381865afa1580156125a0573d6000803e3d6000fd5b505050506040513d601f19601f820116820180604052508101906125c49190614e47565b905060006125f1838673ffffffffffffffffffffffffffffffffffffffff1661395890919063ffffffff16565b905060008185116126025784612604565b815b905060008111156126d05761263a83828973ffffffffffffffffffffffffffffffffffffffff1661363d9092919063ffffffff16565b8273ffffffffffffffffffffffffffffffffffffffff1663573ade81888360028081111561266b5761266a614f8c565b5b886040518563ffffffff1660e01b815260040161268b9493929190614fec565b6020604051808303816000875af11580156126aa573d6000803e3d6000fd5b505050506040513d601f19601f820116820180604052508101906126ce9190614eb9565b505b5050505050505050565b8061018001518060200190518101906126f391906144ce565b846080018560a0018660c0018761018001849052848152508473ffffffffffffffffffffffffffffffffffffffff1673ffffffffffffffffffffffffffffffffffffffff168152508473ffffffffffffffffffffffffffffffffffffffff1673ffffffffffffffffffffffffffffffffffffffff1681525050505050600167ffffffffffffffff81111561278a57612789613d81565b5b6040519080825280602002602001820160405280156127b85781602001602082028036833780820191505090505b50816101200181905250600167ffffffffffffffff8111156127dd576127dc613d81565b5b60405190808252806020026020018201604052801561280b5781602001602082028036833780820191505090505b508161014001819052506000600167ffffffffffffffff81111561283257612831613d81565b5b6040519080825280602002602001820160405280156128605781602001602082028036833780820191505090505b509050600060048360e001511660ff161461287f578160200151612885565b81608001515b82610120015160008151811061289e5761289d614551565b5b602002602001019073ffffffffffffffffffffffffffffffffffffffff16908173ffffffffffffffffffffffffffffffffffffffff16815250506129178261012001516000815181106128f4576128f3614551565b5b602002602001015173ffffffffffffffffffffffffffffffffffffffff166116f2565b15612991577f000000000000000000000000000000000000000000000000000000000000000082610120015160008151811061295657612955614551565b5b602002602001019073ffffffffffffffffffffffffffffffffffffffff16908173ffffffffffffffffffffffffffffffffffffffff16815250505b8160c001518261014001516000815181106129af576129ae614551565b5b6020026020010181815250507f000000000000000000000000000000000000000000000000000000000000000073ffffffffffffffffffffffffffffffffffffffff1663ab9c4b5d3084610120015185610140015185306040518061014001604052808a6060015173ffffffffffffffffffffffffffffffffffffffff1681526020018a6020015173ffffffffffffffffffffffffffffffffffffffff1681526020018a6040015173ffffffffffffffffffffffffffffffffffffffff1681526020018a6080015173ffffffffffffffffffffffffffffffffffffffff1681526020018a60a0015173ffffffffffffffffffffffffffffffffffffffff1681526020018a6020015173ffffffffffffffffffffffffffffffffffffffff1681526020018a6000015181526020018a60c0015181526020018a60e0015160ff16815260200160405180602001604052806000815250815250604051602001612b1691906146dc565b60405160208183030381529060405260006040518863ffffffff1660e01b8152600401612b4997969594939291906148ef565b600060405180830381600087803b158015612b6357600080fd5b505af1158015612b77573d6000803e3d6000fd5b5050505060008261018001515114612e7d57600080836101800151806020019051810190612ba591906151ea565b915091508151815114612be4576040517fff633a3800000000000000000000000000000000000000000000000000000000815260040160405180910390fd5b6000825167ffffffffffffffff811115612c0157612c00613d81565b5b604051908082528060200260200182016040528015612c3a57816020015b612c27613b49565b815260200190600190039081612c1f5790505b50905060005b8351811015612dd45760006040518060a0016040528060016000888681518110612c6d57612c6c614551565b5b602002602001015167ffffffffffffffff1667ffffffffffffffff16815260200190815260200160002060009054906101000a900473ffffffffffffffffffffffffffffffffffffffff16604051602001612cc89190614054565b60405160208183030381529060405281526020013389602001518a604001518b60e0015189604051602001612d01959493929190615333565b6040516020818303038152906040528152602001600067ffffffffffffffff811115612d3057612d2f613d81565b5b604051908082528060200260200182016040528015612d6957816020015b612d56613b8e565b815260200190600190039081612d4e5790505b508152602001600073ffffffffffffffffffffffffffffffffffffffff16815260200160405180602001604052806000815250815250905080838381518110612db557612db4614551565b5b6020026020010181905250508080612dcc90614dea565b915050612c40565b507f000000000000000000000000000000000000000000000000000000000000000073ffffffffffffffffffffffffffffffffffffffff16633626454d82856040518363ffffffff1660e01b8152600401612e30929190615676565b6000604051808303816000875af1158015612e4f573d6000803e3d6000fd5b505050506040513d6000823e3d601f19601f82011682018060405250810190612e789190615785565b505050505b5050565b60008060009054906101000a900473ffffffffffffffffffffffffffffffffffffffff169050816000806101000a81548173ffffffffffffffffffffffffffffffffffffffff021916908373ffffffffffffffffffffffffffffffffffffffff1602179055508173ffffffffffffffffffffffffffffffffffffffff168173ffffffffffffffffffffffffffffffffffffffff167f8be0079c531659141344cd1fd0a4f28419497f9722a3daafe3b4186f6b6457e060405160405180910390a35050565b60008160400151806020019051810190612f5f91906157ce565b90508073ffffffffffffffffffffffffffffffffffffffff167f000000000000000000000000000000000000000000000000000000000000000073ffffffffffffffffffffffffffffffffffffffff1614612ff157806040517f71811df2000000000000000000000000000000000000000000000000000000008152600401612fe89190614054565b60405180910390fd5b600080600080600086606001518060200190518101906130119190615810565b94509450945094509450613023613a70565b85816060019073ffffffffffffffffffffffffffffffffffffffff16908173ffffffffffffffffffffffffffffffffffffffff168152505084816020019073ffffffffffffffffffffffffffffffffffffffff16908173ffffffffffffffffffffffffffffffffffffffff168152505083816040019073ffffffffffffffffffffffffffffffffffffffff16908173ffffffffffffffffffffffffffffffffffffffff1681525050828160e0019060ff16908160ff1681525050818161018001819052506130f0816126da565b5050505050505050565b600061311f836020015173ffffffffffffffffffffffffffffffffffffffff166116f2565b90506000613146846060015173ffffffffffffffffffffffffffffffffffffffff166116f2565b9050600060018561010001511660ff16036132e65780156131f1577f000000000000000000000000000000000000000000000000000000000000000073ffffffffffffffffffffffffffffffffffffffff16632e1a7d4d8560e001516040518263ffffffff1660e01b81526004016131be919061402a565b600060405180830381600087803b1580156131d857600080fd5b505af11580156131ec573d6000803e3d6000fd5b505050505b61321d81856060015186608001518760e001518860c001516132139190614db6565b8860000151612218565b6132368285602001518660400151868860000151611e80565b5081156132bf577f000000000000000000000000000000000000000000000000000000000000000073ffffffffffffffffffffffffffffffffffffffff1663d0e30db0846040518263ffffffff1660e01b81526004016000604051808303818588803b1580156132a557600080fd5b505af11580156132b9573d6000803e3d6000fd5b50505050505b836060015173ffffffffffffffffffffffffffffffffffffffff168460a00151505061334f565b61331281856060015186608001518760e001518860c001516133089190614db6565b8860000151612553565b61332b8285602001518660400151868860000151611fad565b50836060015173ffffffffffffffffffffffffffffffffffffffff168460a0015150505b50505050565b600061337a836020015173ffffffffffffffffffffffffffffffffffffffff166116f2565b905060006133a1846060015173ffffffffffffffffffffffffffffffffffffffff166116f2565b9050600060018561010001511660ff160361357a57600060048561010001511660ff16146133cf57816133d1565b805b15613466577f000000000000000000000000000000000000000000000000000000000000000073ffffffffffffffffffffffffffffffffffffffff16632e1a7d4d8560e001516040518263ffffffff1660e01b8152600401613433919061402a565b600060405180830381600087803b15801561344d57600080fd5b505af1158015613461573d6000803e3d6000fd5b505050505b61349282856020015186604001518760e001518860c001516134889190614db6565b8860000151611841565b6134b1818560600151866080015186886000015189610120015161368c565b600060048561010001511660ff16146134ca57816134cc565b805b15613553577f000000000000000000000000000000000000000000000000000000000000000073ffffffffffffffffffffffffffffffffffffffff1663d0e30db0846040518263ffffffff1660e01b81526004016000604051808303818588803b15801561353957600080fd5b505af115801561354d573d6000803e3d6000fd5b50505050505b836060015173ffffffffffffffffffffffffffffffffffffffff168460a0015150506135e8565b6135a682856020015186604001518760e001518860c0015161359c9190614db6565b8860000151611a8f565b6135c58185606001518660800151868860000151896101200151613711565b836060015173ffffffffffffffffffffffffffffffffffffffff168460a0015150505b50505050565b81601452806034526fa9059cbb00000000000000000000000060005260206000604460106000875af13d156001600051141716613633576390b8ec186000526004601cfd5b6000603452505050565b81601452806034526f095ea7b300000000000000000000000060005260206000604460106000875af13d15600160005114171661368257633e3f8f736000526004601cfd5b6000603452505050565b8373ffffffffffffffffffffffffffffffffffffffff1663c5ebeaec846040518263ffffffff1660e01b81526004016136c5919061402a565b6020604051808303816000875af11580156136e4573d6000803e3d6000fd5b505050506040513d601f19601f820116820180604052508101906137089190614eb9565b50505050505050565b60008473ffffffffffffffffffffffffffffffffffffffff16637535d2466040518163ffffffff1660e01b8152600401602060405180830381865afa15801561375e573d6000803e3d6000fd5b505050506040513d601f19601f820116820180604052508101906137829190614e47565b9050838573ffffffffffffffffffffffffffffffffffffffff16636bd76d2485306040518363ffffffff1660e01b81526004016137c09291906158a7565b602060405180830381865afa1580156137dd573d6000803e3d6000fd5b505050506040513d601f19601f820116820180604052508101906138019190614eb9565b10156138c15760008060008480602001905181019061382091906158d0565b9250925092508773ffffffffffffffffffffffffffffffffffffffff16630b52d55887307fffffffffffffffffffffffffffffffffffffffffffffffffffffffffffffffff808888886040518863ffffffff1660e01b815260040161388b9796959493929190615932565b600060405180830381600087803b1580156138a557600080fd5b505af11580156138b9573d6000803e3d6000fd5b505050505050505b8073ffffffffffffffffffffffffffffffffffffffff1663a415bcad87866002808111156138f2576138f1614f8c565b5b6000886040518663ffffffff1660e01b81526004016139159594939291906159a1565b600060405180830381600087803b15801561392f57600080fd5b505af1158015613943573d6000803e3d6000fd5b5050505050505050505050565b600033905090565b6000613963836116f2565b15613987578173ffffffffffffffffffffffffffffffffffffffff163190506139b3565b6139b0828473ffffffffffffffffffffffffffffffffffffffff1661180c90919063ffffffff16565b90505b92915050565b6000811115613a6b576139cb836116f2565b15613a3e578173ffffffffffffffffffffffffffffffffffffffff16816040516139f490614f17565b60006040518083038185875af1925050503d8060008114613a31576040519150601f19603f3d011682016040523d82523d6000602084013e613a36565b606091505b505050613a6a565b613a6982828573ffffffffffffffffffffffffffffffffffffffff166135ee9092919063ffffffff16565b5b5b505050565b604051806101a0016040528060008152602001600073ffffffffffffffffffffffffffffffffffffffff168152602001600073ffffffffffffffffffffffffffffffffffffffff168152602001600073ffffffffffffffffffffffffffffffffffffffff168152602001600073ffffffffffffffffffffffffffffffffffffffff168152602001600073ffffffffffffffffffffffffffffffffffffffff16815260200160008152602001600060ff16815260200160608152602001606081526020016060815260200160608152602001606081525090565b6040518060a00160405280606081526020016060815260200160608152602001600073ffffffffffffffffffffffffffffffffffffffff168152602001606081525090565b6040518060400160405280600073ffffffffffffffffffffffffffffffffffffffff168152602001600081525090565b6000604051905090565b600080fd5b600080fd5b60007fffffffff0000000000000000000000000000000000000000000000000000000082169050919050565b613c0781613bd2565b8114613c1257600080fd5b50565b600081359050613c2481613bfe565b92915050565b600060208284031215613c4057613c3f613bc8565b5b6000613c4e84828501613c15565b91505092915050565b60008115159050919050565b613c6c81613c57565b82525050565b6000602082019050613c876000830184613c63565b92915050565b600067ffffffffffffffff82169050919050565b613caa81613c8d565b8114613cb557600080fd5b50565b600081359050613cc781613ca1565b92915050565b600073ffffffffffffffffffffffffffffffffffffffff82169050919050565b6000613cf882613ccd565b9050919050565b613d0881613ced565b8114613d1357600080fd5b50565b600081359050613d2581613cff565b92915050565b60008060408385031215613d4257613d41613bc8565b5b6000613d5085828601613cb8565b9250506020613d6185828601613d16565b9150509250929050565b600080fd5b6000601f19601f8301169050919050565b7f4e487b7100000000000000000000000000000000000000000000000000000000600052604160045260246000fd5b613db982613d70565b810181811067ffffffffffffffff82111715613dd857613dd7613d81565b5b80604052505050565b6000613deb613bbe565b9050613df78282613db0565b919050565b600080fd5b6000819050919050565b613e1481613e01565b8114613e1f57600080fd5b50565b600081359050613e3181613e0b565b92915050565b600060ff82169050919050565b613e4d81613e37565b8114613e5857600080fd5b50565b600081359050613e6a81613e44565b92915050565b600080fd5b600080fd5b600067ffffffffffffffff821115613e9557613e94613d81565b5b613e9e82613d70565b9050602081019050919050565b82818337600083830152505050565b6000613ecd613ec884613e7a565b613de1565b905082815260208101848484011115613ee957613ee8613e75565b5b613ef4848285613eab565b509392505050565b600082601f830112613f1157613f10613e70565b5b8135613f21848260208601613eba565b91505092915050565b600060a08284031215613f4057613f3f613d6b565b5b613f4a60a0613de1565b90506000613f5a84828501613d16565b6000830152506020613f6e84828501613d16565b6020830152506040613f8284828501613e22565b6040830152506060613f9684828501613e5b565b606083015250608082013567ffffffffffffffff811115613fba57613fb9613dfc565b5b613fc684828501613efc565b60808301525092915050565b600060208284031215613fe857613fe7613bc8565b5b600082013567ffffffffffffffff81111561400657614005613bcd565b5b61401284828501613f2a565b91505092915050565b61402481613e01565b82525050565b600060208201905061403f600083018461401b565b92915050565b61404e81613ced565b82525050565b60006020820190506140696000830184614045565b92915050565b60006020828403121561408557614084613bc8565b5b600061409384828501613cb8565b91505092915050565b6000819050919050565b60006140c16140bc6140b784613ccd565b61409c565b613ccd565b9050919050565b60006140d3826140a6565b9050919050565b60006140e5826140c8565b9050919050565b6140f5816140da565b82525050565b600060208201905061411060008301846140ec565b92915050565b600080fd5b600060a0828403121561413157614130614116565b5b81905092915050565b6000602082840312156141505761414f613bc8565b5b600082013567ffffffffffffffff81111561416e5761416d613bcd565b5b61417a8482850161411b565b91505092915050565b600080fd5b600080fd5b60008083601f8401126141a3576141a2613e70565b5b8235905067ffffffffffffffff8111156141c0576141bf614183565b5b6020830191508360208202830111156141dc576141db614188565b5b9250929050565b60008083601f8401126141f9576141f8613e70565b5b8235905067ffffffffffffffff81111561421657614215614183565b5b60208301915083602082028301111561423257614231614188565b5b9250929050565b60008083601f84011261424f5761424e613e70565b5b8235905067ffffffffffffffff81111561426c5761426b614183565b5b60208301915083600182028301111561428857614287614188565b5b9250929050565b600080600080600080600080600060a08a8c0312156142b1576142b0613bc8565b5b60008a013567ffffffffffffffff8111156142cf576142ce613bcd565b5b6142db8c828d0161418d565b995099505060208a013567ffffffffffffffff8111156142fe576142fd613bcd565b5b61430a8c828d016141e3565b975097505060408a013567ffffffffffffffff81111561432d5761432c613bcd565b5b6143398c828d016141e3565b9550955050606061434c8c828d01613d16565b93505060808a013567ffffffffffffffff81111561436d5761436c613bcd565b5b6143798c828d01614239565b92509250509295985092959850929598565b6000602082840312156143a1576143a0613bc8565b5b60006143af84828501613d16565b91505092915050565b60006040820190506143cd600083018561401b565b6143da602083018461401b565b9392505050565b60006143ec82613ccd565b9050919050565b6143fc816143e1565b811461440757600080fd5b50565b600081519050614419816143f3565b92915050565b60008151905061442e81613e0b565b92915050565b60005b83811015614452578082015181840152602081019050614437565b60008484015250505050565b600061447161446c84613e7a565b613de1565b90508281526020810184848401111561448d5761448c613e75565b5b614498848285614434565b509392505050565b600082601f8301126144b5576144b4613e70565b5b81516144c584826020860161445e565b91505092915050565b600080600080608085870312156144e8576144e7613bc8565b5b60006144f68782880161440a565b94505060206145078782880161440a565b93505060406145188782880161441f565b925050606085015167ffffffffffffffff81111561453957614538613bcd565b5b614545878288016144a0565b91505092959194509250565b7f4e487b7100000000000000000000000000000000000000000000000000000000600052603260045260246000fd5b61458981613ced565b82525050565b61459881613e01565b82525050565b6145a781613e37565b82525050565b600081519050919050565b600082825260208201905092915050565b60006145d4826145ad565b6145de81856145b8565b93506145ee818560208601614434565b6145f781613d70565b840191505092915050565b60006101408301600083015161461b6000860182614580565b50602083015161462e6020860182614580565b5060408301516146416040860182614580565b5060608301516146546060860182614580565b5060808301516146676080860182614580565b5060a083015161467a60a0860182614580565b5060c083015161468d60c086018261458f565b5060e08301516146a060e086018261458f565b506101008301516146b561010086018261459e565b506101208301518482036101208601526146cf82826145c9565b9150508091505092915050565b600060208201905081810360008301526146f68184614602565b905092915050565b600081519050919050565b600082825260208201905092915050565b6000819050602082019050919050565b60006147368383614580565b60208301905092915050565b6000602082019050919050565b600061475a826146fe565b6147648185614709565b935061476f8361471a565b8060005b838110156147a0578151614787888261472a565b975061479283614742565b925050600181019050614773565b5085935050505092915050565b600081519050919050565b600082825260208201905092915050565b6000819050602082019050919050565b60006147e5838361458f565b60208301905092915050565b6000602082019050919050565b6000614809826147ad565b61481381856147b8565b935061481e836147c9565b8060005b8381101561484f57815161483688826147d9565b9750614841836147f1565b925050600181019050614822565b5085935050505092915050565b600082825260208201905092915050565b6000614878826145ad565b614882818561485c565b9350614892818560208601614434565b61489b81613d70565b840191505092915050565b6000819050919050565b600061ffff82169050919050565b60006148d96148d46148cf846148a6565b61409c565b6148b0565b9050919050565b6148e9816148be565b82525050565b600060e082019050614904600083018a614045565b8181036020830152614916818961474f565b9050818103604083015261492a81886147fe565b9050818103606083015261493e81876147fe565b905061494d6080830186614045565b81810360a083015261495f818561486d565b905061496e60c08301846148e0565b98975050505050505050565b7f4e487b7100000000000000000000000000000000000000000000000000000000600052601160045260246000fd5b60006149b482613e01565b91506149bf83613e01565b92508282039050818111156149d7576149d661497a565b5b92915050565b6000819050919050565b6149f0816149dd565b81146149fb57600080fd5b50565b600081359050614a0d816149e7565b92915050565b600067ffffffffffffffff821115614a2e57614a2d613d81565b5b602082029050602081019050919050565b600060408284031215614a5557614a54613d6b565b5b614a5f6040613de1565b90506000614a6f84828501613d16565b6000830152506020614a8384828501613e22565b60208301525092915050565b6000614aa2614a9d84614a13565b613de1565b90508083825260208201905060408402830185811115614ac557614ac4614188565b5b835b81811015614aee5780614ada8882614a3f565b845260208401935050604081019050614ac7565b5050509392505050565b600082601f830112614b0d57614b0c613e70565b5b8135614b1d848260208601614a8f565b91505092915050565b600060a08284031215614b3c57614b3b613d6b565b5b614b4660a0613de1565b90506000614b56848285016149fe565b6000830152506020614b6a84828501613cb8565b602083015250604082013567ffffffffffffffff811115614b8e57614b8d613dfc565b5b614b9a84828501613efc565b604083015250606082013567ffffffffffffffff811115614bbe57614bbd613dfc565b5b614bca84828501613efc565b606083015250608082013567ffffffffffffffff811115614bee57614bed613dfc565b5b614bfa84828501614af8565b60808301525092915050565b6000614c123683614b26565b9050919050565b60006101408284031215614c3057614c2f613d6b565b5b614c3b610140613de1565b90506000614c4b84828501613d16565b6000830152506020614c5f84828501613d16565b6020830152506040614c7384828501613d16565b6040830152506060614c8784828501613d16565b6060830152506080614c9b84828501613d16565b60808301525060a0614caf84828501613d16565b60a08301525060c0614cc384828501613e22565b60c08301525060e0614cd784828501613e22565b60e083015250610100614cec84828501613e5b565b6101008301525061012082013567ffffffffffffffff811115614d1257614d11613dfc565b5b614d1e84828501613efc565b6101208301525092915050565b600060208284031215614d4157614d40613bc8565b5b600082013567ffffffffffffffff811115614d5f57614d5e613bcd565b5b614d6b84828501614c19565b91505092915050565b6000614d7f82613e01565b9150614d8a83613e01565b9250828202614d9881613e01565b91508282048414831517614daf57614dae61497a565b5b5092915050565b6000614dc182613e01565b9150614dcc83613e01565b9250828201905080821115614de457614de361497a565b5b92915050565b6000614df582613e01565b91507fffffffffffffffffffffffffffffffffffffffffffffffffffffffffffffffff8203614e2757614e2661497a565b5b600182019050919050565b600081519050614e4181613cff565b92915050565b600060208284031215614e5d57614e5c613bc8565b5b6000614e6b84828501614e32565b91505092915050565b6000608082019050614e896000830187614045565b614e96602083018661401b565b614ea36040830185614045565b614eb060608301846148e0565b95945050505050565b600060208284031215614ecf57614ece613bc8565b5b6000614edd8482850161441f565b91505092915050565b600081905092915050565b50565b6000614f01600083614ee6565b9150614f0c82614ef1565b600082019050919050565b6000614f2282614ef4565b9150819050919050565b6000606082019050614f416000830186614045565b614f4e602083018561401b565b614f5b6040830184614045565b949350505050565b6000604082019050614f786000830185614045565b614f85602083018461401b565b9392505050565b7f4e487b7100000000000000000000000000000000000000000000000000000000600052602160045260246000fd5b6000614fd6614fd1614fcc84613e37565b61409c565b613e01565b9050919050565b614fe681614fbb565b82525050565b60006080820190506150016000830187614045565b61500e602083018661401b565b61501b6040830185614fdd565b6150286060830184614045565b95945050505050565b600067ffffffffffffffff82111561504c5761504b613d81565b5b602082029050602081019050919050565b60008151905061506c81613ca1565b92915050565b600061508561508084615031565b613de1565b905080838252602082019050602084028301858111156150a8576150a7614188565b5b835b818110156150d157806150bd888261505d565b8452602084019350506020810190506150aa565b5050509392505050565b600082601f8301126150f0576150ef613e70565b5b8151615100848260208601615072565b91505092915050565b600067ffffffffffffffff82111561512457615123613d81565b5b602082029050602081019050919050565b600061514861514384615109565b613de1565b9050808382526020820190506020840283018581111561516b5761516a614188565b5b835b818110156151b257805167ffffffffffffffff8111156151905761518f613e70565b5b80860161519d89826144a0565b8552602085019450505060208101905061516d565b5050509392505050565b600082601f8301126151d1576151d0613e70565b5b81516151e1848260208601615135565b91505092915050565b6000806040838503121561520157615200613bc8565b5b600083015167ffffffffffffffff81111561521f5761521e613bcd565b5b61522b858286016150db565b925050602083015167ffffffffffffffff81111561524c5761524b613bcd565b5b615258858286016151bc565b9150509250929050565b61526b81613e37565b82525050565b600081519050919050565b600082825260208201905092915050565b6000819050602082019050919050565b60006152a983836145c9565b905092915050565b6000602082019050919050565b60006152c982615271565b6152d3818561527c565b9350836020820285016152e58561528d565b8060005b858110156153215784840389528151615302858261529d565b945061530d836152b1565b925060208a019950506001810190506152e9565b50829750879550505050505092915050565b600060a0820190506153486000830188614045565b6153556020830187614045565b6153626040830186614045565b61536f6060830185615262565b818103608083015261538181846152be565b90509695505050505050565b600081519050919050565b600082825260208201905092915050565b6000819050602082019050919050565b600081519050919050565b600082825260208201905092915050565b6000819050602082019050919050565b6040820160008201516153fb6000850182614580565b50602082015161540e602085018261458f565b50505050565b600061542083836153e5565b60408301905092915050565b6000602082019050919050565b6000615444826153b9565b61544e81856153c4565b9350615459836153d5565b8060005b8381101561548a5781516154718882615414565b975061547c8361542c565b92505060018101905061545d565b5085935050505092915050565b600060a08301600083015184820360008601526154b482826145c9565b915050602083015184820360208601526154ce82826145c9565b915050604083015184820360408601526154e88282615439565b91505060608301516154fd6060860182614580565b506080830151848203608086015261551582826145c9565b9150508091505092915050565b600061552e8383615497565b905092915050565b6000602082019050919050565b600061554e8261538d565b6155588185615398565b93508360208202850161556a856153a9565b8060005b858110156155a657848403895281516155878582615522565b945061559283615536565b925060208a0199505060018101905061556e565b50829750879550505050505092915050565b600081519050919050565b600082825260208201905092915050565b6000819050602082019050919050565b6155ed81613c8d565b82525050565b60006155ff83836155e4565b60208301905092915050565b6000602082019050919050565b6000615623826155b8565b61562d81856155c3565b9350615638836155d4565b8060005b8381101561566957815161565088826155f3565b975061565b8361560b565b92505060018101905061563c565b5085935050505092915050565b600060408201905081810360008301526156908185615543565b905081810360208301526156a48184615618565b90509392505050565b600067ffffffffffffffff8211156156c8576156c7613d81565b5b602082029050602081019050919050565b6000815190506156e8816149e7565b92915050565b60006157016156fc846156ad565b613de1565b9050808382526020820190506020840283018581111561572457615723614188565b5b835b8181101561574d578061573988826156d9565b845260208401935050602081019050615726565b5050509392505050565b600082601f83011261576c5761576b613e70565b5b815161577c8482602086016156ee565b91505092915050565b60006020828403121561579b5761579a613bc8565b5b600082015167ffffffffffffffff8111156157b9576157b8613bcd565b5b6157c584828501615757565b91505092915050565b6000602082840312156157e4576157e3613bc8565b5b60006157f28482850161440a565b91505092915050565b60008151905061580a81613e44565b92915050565b600080600080600060a0868803121561582c5761582b613bc8565b5b600061583a8882890161440a565b955050602061584b8882890161440a565b945050604061585c8882890161440a565b935050606061586d888289016157fb565b925050608086015167ffffffffffffffff81111561588e5761588d613bcd565b5b61589a888289016144a0565b9150509295509295909350565b60006040820190506158bc6000830185614045565b6158c96020830184614045565b9392505050565b6000806000606084860312156158e9576158e8613bc8565b5b60006158f7868287016157fb565b9350506020615908868287016156d9565b9250506040615919868287016156d9565b9150509250925092565b61592c816149dd565b82525050565b600060e082019050615947600083018a614045565b6159546020830189614045565b615961604083018861401b565b61596e606083018761401b565b61597b6080830186615262565b61598860a0830185615923565b61599560c0830184615923565b98975050505050505050565b600060a0820190506159b66000830188614045565b6159c3602083018761401b565b6159d06040830186614fdd565b6159dd60608301856148e0565b6159ea6080830184614045565b969550505050505056fea2646970667358221220d482c97e5f0ec73edc4d4cf4177b87549deaa7bce7951d2243725b14ea7dcd1964736f6c6343000814003360e06040523480156200001157600080fd5b5060405162001f1438038062001f1483398181016040528101906200003791906200033a565b80600073ffffffffffffffffffffffffffffffffffffffff168173ffffffffffffffffffffffffffffffffffffffff1603620000ad5760006040517f1e4fbdf7000000000000000000000000000000000000000000000000000000008152600401620000a49190620003a7565b60405180910390fd5b620000be816200020c60201b60201c565b503373ffffffffffffffffffffffffffffffffffffffff1660808173ffffffffffffffffffffffffffffffffffffffff16815250508273ffffffffffffffffffffffffffffffffffffffff1660a08173ffffffffffffffffffffffffffffffffffffffff16815250508173ffffffffffffffffffffffffffffffffffffffff1660c08173ffffffffffffffffffffffffffffffffffffffff168152505060c05173ffffffffffffffffffffffffffffffffffffffff1663095ea7b360a0517fffffffffffffffffffffffffffffffffffffffffffffffffffffffffffffffff6040518363ffffffff1660e01b8152600401620001bc929190620003df565b6020604051808303816000875af1158015620001dc573d6000803e3d6000fd5b505050506040513d601f19601f8201168201806040525081019062000202919062000449565b505050506200047b565b60008060009054906101000a900473ffffffffffffffffffffffffffffffffffffffff169050816000806101000a81548173ffffffffffffffffffffffffffffffffffffffff021916908373ffffffffffffffffffffffffffffffffffffffff1602179055508173ffffffffffffffffffffffffffffffffffffffff168173ffffffffffffffffffffffffffffffffffffffff167f8be0079c531659141344cd1fd0a4f28419497f9722a3daafe3b4186f6b6457e060405160405180910390a35050565b600080fd5b600073ffffffffffffffffffffffffffffffffffffffff82169050919050565b60006200030282620002d5565b9050919050565b6200031481620002f5565b81146200032057600080fd5b50565b600081519050620003348162000309565b92915050565b600080600060608486031215620003565762000355620002d0565b5b6000620003668682870162000323565b9350506020620003798682870162000323565b92505060406200038c8682870162000323565b9150509250925092565b620003a181620002f5565b82525050565b6000602082019050620003be600083018462000396565b92915050565b6000819050919050565b620003d981620003c4565b82525050565b6000604082019050620003f6600083018562000396565b620004056020830184620003ce565b9392505050565b60008115159050919050565b62000423816200040c565b81146200042f57600080fd5b50565b600081519050620004438162000418565b92915050565b600060208284031215620004625762000461620002d0565b5b6000620004728482850162000432565b91505092915050565b60805160a05160c051611a46620004ce600039600061045b015260008181610423015281816104aa015281816107d4015281816108ab01526109510152600081816102cf015261054b0152611a466000f3fe6080604052600436106100955760003560e01c80638da5cb5b116100595780638da5cb5b14610174578063a48a90581461019f578063db3e3461146101dc578063f2fde38b14610207578063f3fef3a3146102305761009c565b806301e33667146100a15780633626454d146100ca578063581bdd1614610107578063715018a6146101325780637d253aff146101495761009c565b3661009c57005b600080fd5b3480156100ad57600080fd5b506100c860048036038101906100c39190610bec565b610259565b005b3480156100d657600080fd5b506100f160048036038101906100ec9190611187565b6102cb565b6040516100fe91906112c7565b60405180910390f35b34801561011357600080fd5b5061011c610421565b60405161012991906112f8565b60405180910390f35b34801561013e57600080fd5b50610147610445565b005b34801561015557600080fd5b5061015e610459565b60405161016b91906112f8565b60405180910390f35b34801561018057600080fd5b5061018961047d565b60405161019691906112f8565b60405180910390f35b3480156101ab57600080fd5b506101c660048036038101906101c19190611313565b6104a6565b6040516101d3919061135b565b60405180910390f35b3480156101e857600080fd5b506101f1610549565b6040516101fe91906112f8565b60405180910390f35b34801561021357600080fd5b5061022e60048036038101906102299190611376565b61056d565b005b34801561023c57600080fd5b50610257600480360381019061025291906113a3565b6105f3565b005b6102616106c4565b600061028c308473ffffffffffffffffffffffffffffffffffffffff1661074b90919063ffffffff16565b90508082111561029a578091505b6102c584838573ffffffffffffffffffffffffffffffffffffffff166107809092919063ffffffff16565b50505050565b60607f000000000000000000000000000000000000000000000000000000000000000073ffffffffffffffffffffffffffffffffffffffff163373ffffffffffffffffffffffffffffffffffffffff1614610352576040517fb32d8c6600000000000000000000000000000000000000000000000000000000815260040160405180910390fd5b825167ffffffffffffffff81111561036d5761036c610c55565b5b60405190808252806020026020018201604052801561039b5781602001602082028036833780820191505090505b50905060005b835181101561041a576103e88482815181106103c0576103bf6113e3565b5b60200260200101518483815181106103db576103da6113e3565b5b60200260200101516107cf565b8282815181106103fb576103fa6113e3565b5b602002602001018181525050808061041290611441565b9150506103a1565b5092915050565b7f000000000000000000000000000000000000000000000000000000000000000081565b61044d6106c4565b6104576000610a78565b565b7f000000000000000000000000000000000000000000000000000000000000000081565b60008060009054906101000a900473ffffffffffffffffffffffffffffffffffffffff16905090565b60007f000000000000000000000000000000000000000000000000000000000000000073ffffffffffffffffffffffffffffffffffffffff1663a48a9058836040518263ffffffff1660e01b81526004016105019190611498565b602060405180830381865afa15801561051e573d6000803e3d6000fd5b505050506040513d601f19601f8201168201806040525081019061054291906114df565b9050919050565b7f000000000000000000000000000000000000000000000000000000000000000081565b6105756106c4565b600073ffffffffffffffffffffffffffffffffffffffff168173ffffffffffffffffffffffffffffffffffffffff16036105e75760006040517f1e4fbdf70000000000000000000000000000000000000000000000000000000081526004016105de91906112f8565b60405180910390fd5b6105f081610a78565b50565b6105fb6106c4565b60004790508082111561060c578091505b60008373ffffffffffffffffffffffffffffffffffffffff16836040516106329061153d565b60006040518083038185875af1925050503d806000811461066f576040519150601f19603f3d011682016040523d82523d6000602084013e610674565b606091505b50509050806106be573384846040517f9d11f5630000000000000000000000000000000000000000000000000000000081526004016106b593929190611561565b60405180910390fd5b50505050565b6106cc610b3c565b73ffffffffffffffffffffffffffffffffffffffff166106ea61047d565b73ffffffffffffffffffffffffffffffffffffffff16146107495761070d610b3c565b6040517f118cdaa700000000000000000000000000000000000000000000000000000000815260040161074091906112f8565b60405180910390fd5b565b6000816014526f70a0823100000000000000000000000060005260208060246010865afa601f3d111660205102905092915050565b81601452806034526fa9059cbb00000000000000000000000060005260206000604460106000875af13d1560016000511417166107c5576390b8ec186000526004601cfd5b6000603452505050565b6000807f000000000000000000000000000000000000000000000000000000000000000073ffffffffffffffffffffffffffffffffffffffff166320487ded84866040518363ffffffff1660e01b815260040161082d92919061179e565b602060405180830381865afa15801561084a573d6000803e3d6000fd5b505050506040513d601f19601f8201168201806040525081019061086e91906117e3565b905060008073ffffffffffffffffffffffffffffffffffffffff16856060015173ffffffffffffffffffffffffffffffffffffffff160361094f577f000000000000000000000000000000000000000000000000000000000000000073ffffffffffffffffffffffffffffffffffffffff166396f4e9f98386886040518463ffffffff1660e01b815260040161090592919061179e565b60206040518083038185885af1158015610923573d6000803e3d6000fd5b50505050506040513d601f19601f82011682018060405250810190610948919061183c565b90506109f0565b7f000000000000000000000000000000000000000000000000000000000000000073ffffffffffffffffffffffffffffffffffffffff166396f4e9f985876040518363ffffffff1660e01b81526004016109aa92919061179e565b6020604051808303816000875af11580156109c9573d6000803e3d6000fd5b505050506040513d601f19601f820116820180604052508101906109ed919061183c565b90505b60008560200151806020019051810190610a0a9190611950565b5050505090508073ffffffffffffffffffffffffffffffffffffffff168567ffffffffffffffff16837fbb84df71a0e51d82ff2e818a77257c7a05d8ea1bbcf265b377fd30d8e9e790213087604051610a649291906119e7565b60405180910390a481935050505092915050565b60008060009054906101000a900473ffffffffffffffffffffffffffffffffffffffff169050816000806101000a81548173ffffffffffffffffffffffffffffffffffffffff021916908373ffffffffffffffffffffffffffffffffffffffff1602179055508173ffffffffffffffffffffffffffffffffffffffff168173ffffffffffffffffffffffffffffffffffffffff167f8be0079c531659141344cd1fd0a4f28419497f9722a3daafe3b4186f6b6457e060405160405180910390a35050565b600033905090565b6000604051905090565b600080fd5b600080fd5b600073ffffffffffffffffffffffffffffffffffffffff82169050919050565b6000610b8382610b58565b9050919050565b610b9381610b78565b8114610b9e57600080fd5b50565b600081359050610bb081610b8a565b92915050565b6000819050919050565b610bc981610bb6565b8114610bd457600080fd5b50565b600081359050610be681610bc0565b92915050565b600080600060608486031215610c0557610c04610b4e565b5b6000610c1386828701610ba1565b9350506020610c2486828701610ba1565b9250506040610c3586828701610bd7565b9150509250925092565b600080fd5b6000601f19601f8301169050919050565b7f4e487b7100000000000000000000000000000000000000000000000000000000600052604160045260246000fd5b610c8d82610c44565b810181811067ffffffffffffffff82111715610cac57610cab610c55565b5b80604052505050565b6000610cbf610b44565b9050610ccb8282610c84565b919050565b600067ffffffffffffffff821115610ceb57610cea610c55565b5b602082029050602081019050919050565b600080fd5b600080fd5b600080fd5b600080fd5b600067ffffffffffffffff821115610d2b57610d2a610c55565b5b610d3482610c44565b9050602081019050919050565b82818337600083830152505050565b6000610d63610d5e84610d10565b610cb5565b905082815260208101848484011115610d7f57610d7e610d0b565b5b610d8a848285610d41565b509392505050565b600082601f830112610da757610da6610c3f565b5b8135610db7848260208601610d50565b91505092915050565b600067ffffffffffffffff821115610ddb57610dda610c55565b5b602082029050602081019050919050565b600060408284031215610e0257610e01610d01565b5b610e0c6040610cb5565b90506000610e1c84828501610ba1565b6000830152506020610e3084828501610bd7565b60208301525092915050565b6000610e4f610e4a84610dc0565b610cb5565b90508083825260208201905060408402830185811115610e7257610e71610cfc565b5b835b81811015610e9b5780610e878882610dec565b845260208401935050604081019050610e74565b5050509392505050565b600082601f830112610eba57610eb9610c3f565b5b8135610eca848260208601610e3c565b91505092915050565b600060a08284031215610ee957610ee8610d01565b5b610ef360a0610cb5565b9050600082013567ffffffffffffffff811115610f1357610f12610d06565b5b610f1f84828501610d92565b600083015250602082013567ffffffffffffffff811115610f4357610f42610d06565b5b610f4f84828501610d92565b602083015250604082013567ffffffffffffffff811115610f7357610f72610d06565b5b610f7f84828501610ea5565b6040830152506060610f9384828501610ba1565b606083015250608082013567ffffffffffffffff811115610fb757610fb6610d06565b5b610fc384828501610d92565b60808301525092915050565b6000610fe2610fdd84610cd0565b610cb5565b9050808382526020820190506020840283018581111561100557611004610cfc565b5b835b8181101561104c57803567ffffffffffffffff81111561102a57611029610c3f565b5b8086016110378982610ed3565b85526020850194505050602081019050611007565b5050509392505050565b600082601f83011261106b5761106a610c3f565b5b813561107b848260208601610fcf565b91505092915050565b600067ffffffffffffffff82111561109f5761109e610c55565b5b602082029050602081019050919050565b600067ffffffffffffffff82169050919050565b6110cd816110b0565b81146110d857600080fd5b50565b6000813590506110ea816110c4565b92915050565b60006111036110fe84611084565b610cb5565b9050808382526020820190506020840283018581111561112657611125610cfc565b5b835b8181101561114f578061113b88826110db565b845260208401935050602081019050611128565b5050509392505050565b600082601f83011261116e5761116d610c3f565b5b813561117e8482602086016110f0565b91505092915050565b6000806040838503121561119e5761119d610b4e565b5b600083013567ffffffffffffffff8111156111bc576111bb610b53565b5b6111c885828601611056565b925050602083013567ffffffffffffffff8111156111e9576111e8610b53565b5b6111f585828601611159565b9150509250929050565b600081519050919050565b600082825260208201905092915050565b6000819050602082019050919050565b6000819050919050565b61123e8161122b565b82525050565b60006112508383611235565b60208301905092915050565b6000602082019050919050565b6000611274826111ff565b61127e818561120a565b93506112898361121b565b8060005b838110156112ba5781516112a18882611244565b97506112ac8361125c565b92505060018101905061128d565b5085935050505092915050565b600060208201905081810360008301526112e18184611269565b905092915050565b6112f281610b78565b82525050565b600060208201905061130d60008301846112e9565b92915050565b60006020828403121561132957611328610b4e565b5b6000611337848285016110db565b91505092915050565b60008115159050919050565b61135581611340565b82525050565b6000602082019050611370600083018461134c565b92915050565b60006020828403121561138c5761138b610b4e565b5b600061139a84828501610ba1565b91505092915050565b600080604083850312156113ba576113b9610b4e565b5b60006113c885828601610ba1565b92505060206113d985828601610bd7565b9150509250929050565b7f4e487b7100000000000000000000000000000000000000000000000000000000600052603260045260246000fd5b7f4e487b7100000000000000000000000000000000000000000000000000000000600052601160045260246000fd5b600061144c82610bb6565b91507fffffffffffffffffffffffffffffffffffffffffffffffffffffffffffffffff820361147e5761147d611412565b5b600182019050919050565b611492816110b0565b82525050565b60006020820190506114ad6000830184611489565b92915050565b6114bc81611340565b81146114c757600080fd5b50565b6000815190506114d9816114b3565b92915050565b6000602082840312156114f5576114f4610b4e565b5b6000611503848285016114ca565b91505092915050565b600081905092915050565b50565b600061152760008361150c565b915061153282611517565b600082019050919050565b60006115488261151a565b9150819050919050565b61155b81610bb6565b82525050565b600060608201905061157660008301866112e9565b61158360208301856112e9565b6115906040830184611552565b949350505050565b600081519050919050565b600082825260208201905092915050565b60005b838110156115d25780820151818401526020810190506115b7565b60008484015250505050565b60006115e982611598565b6115f381856115a3565b93506116038185602086016115b4565b61160c81610c44565b840191505092915050565b600081519050919050565b600082825260208201905092915050565b6000819050602082019050919050565b61164c81610b78565b82525050565b61165b81610bb6565b82525050565b6040820160008201516116776000850182611643565b50602082015161168a6020850182611652565b50505050565b600061169c8383611661565b60408301905092915050565b6000602082019050919050565b60006116c082611617565b6116ca8185611622565b93506116d583611633565b8060005b838110156117065781516116ed8882611690565b97506116f8836116a8565b9250506001810190506116d9565b5085935050505092915050565b600060a083016000830151848203600086015261173082826115de565b9150506020830151848203602086015261174a82826115de565b9150506040830151848203604086015261176482826116b5565b91505060608301516117796060860182611643565b506080830151848203608086015261179182826115de565b9150508091505092915050565b60006040820190506117b36000830185611489565b81810360208301526117c58184611713565b90509392505050565b6000815190506117dd81610bc0565b92915050565b6000602082840312156117f9576117f8610b4e565b5b6000611807848285016117ce565b91505092915050565b6118198161122b565b811461182457600080fd5b50565b60008151905061183681611810565b92915050565b60006020828403121561185257611851610b4e565b5b600061186084828501611827565b91505092915050565b600061187482610b58565b9050919050565b61188481611869565b811461188f57600080fd5b50565b6000815190506118a18161187b565b92915050565b600060ff82169050919050565b6118bd816118a7565b81146118c857600080fd5b50565b6000815190506118da816118b4565b92915050565b60006118f36118ee84610d10565b610cb5565b90508281526020810184848401111561190f5761190e610d0b565b5b61191a8482856115b4565b509392505050565b600082601f83011261193757611936610c3f565b5b81516119478482602086016118e0565b91505092915050565b600080600080600060a0868803121561196c5761196b610b4e565b5b600061197a88828901611892565b955050602061198b88828901611892565b945050604061199c88828901611892565b93505060606119ad888289016118cb565b925050608086015167ffffffffffffffff8111156119ce576119cd610b53565b5b6119da88828901611922565b9150509295509295909350565b60006040820190506119fc60008301856112e9565b611a096020830184611552565b939250505056fea2646970667358221220c28bc504644112563849cd6ea3776f42c5b93b6038a7552bb8ba52803e3926bb64736f6c63430008140033",
  "linkReferences": {},
  "deployedLinkReferences": {}
}